S0140000417373696E676D656E745F332E7372656365
S11300000C942A000C943F000C943F000C943F0085
S11300100C943F000C943F000C943F000C943F0060
S11300200C943F000C943F000C943F000C943F0050
S11300300C943F000C943F000C943F000C943F0040
S11300400C943F000C943F000C943F000C943F0030
S11300500C943F0011241FBECFE5D8E0DEBFCDBF16
S113006010E0A0E6B0E0EAE8F7E002C005900D92E7
S1130070AC38B107D9F70E942B030C94C3030C943A
S113008000003E9A3F98389A3D98359A329A319AB0
S1130090309A339A379A0895369A349BFECF64B1D6
S11300A075B144EF51E0649F9001659F300D749FDA
S11300B0300D1124232F26952695FC0120831182CF
S11300C00895442379F1413009F05FC0813079F01B
S11300D028F08230A9F08330E1F008952AB381E05A
S11300E090E001C0880F6A95EAF7822B2CC027B3F1
S11300F081E090E001C0880F6A95EAF7822B2EC058
S113010024B381E090E001C0880F6A95EAF7822B5E
S113011030C021B381E090E001C0880F6A95EAF70E
S1130120822B32C0813089F028F08230C9F08330CC
S113013011F108952AB381E090E001C0880F6A9517
S1130140EAF7809582238ABB089527B381E090E083
S113015001C0880F6A95EAF78095822387BB0895CA
S113016024B381E090E001C0880F6A95EAF7809596
S1130170822384BB089521B381E090E001C0880FFD
S11301806A95EAF78095822381BB0895442379F127
S1130190413009F05FC0813079F028F08230A9F055
S11301A08330E1F008952BB381E090E001C0880F23
S11301B06A95EAF7822B2CC028B381E090E001C055
S11301C0880F6A95EAF7822B2EC025B381E090E070
S11301D001C0880F6A95EAF7822B30C022B381E010
S11301E090E001C0880F6A95EAF7822B32C0813013
S11301F089F028F08230C9F0833011F108952BB3CF
S113020081E090E001C0880F6A95EAF78095822327
S11302108BBB089528B381E090E001C0880F6A95F4
S1130220EAF78095822388BB089525B381E090E0A6
S113023001C0880F6A95EAF78095822385BB0895EB
S113024022B381E090E001C0880F6A95EAF78095B7
S1130250822382BB0895FA01813041F028F0823074
S113026039F0833039F0089589B305C086B303C0EB
S113027083B301C080B390E002C0959587956A95D9
S1130280E2F7817080830895813081F028F0823014
S1130290B9F08330F9F008952BB381E090E001C008
S11302A0880F6A95EAF7822B8BBB089528B381E007
S11302B090E001C0880F6A95EAF7822B88BB089505
S11302C025B381E090E001C0880F6A95EAF7822B9C
S11302D085BB089522B381E090E001C0880F6A9540
S11302E0EAF7822B82BB089541E060E083E00E943C
S11302F0610041E061E083E00E94610041E062E06E
S113030083E00E94610041E063E083E00E946100B9
S113031040E064E083E00E94610040E065E083E047
S11303200E94610040E066E083E00E94610040E0DA
S113033067E083E00E94610064E083E00E9444017E
S113034065E083E00E94440166E083E00E9444018A
S113035067E083E00E94440141E060E083E00E94A2
S1130360C60041E061E083E00E94C60041E062E033
S113037083E00E94C60041E063E083E00C94C60081
S1130380BF92CF92DF92EF92FF920F931F93CF937E
S1130390DF931F92CDB7DEB7198280E6E82E80E0A6
S11303A0F82EB12C10E040E0612F83E00E94C600DB
S11303B0670104E0AE014F5F5F4F602F83E00E944E
S11303C02B018981811113C0F601B08089818111CB
S11303D008C0AE014F5F5F4F602F83E00E942B0186
S11303E0F5CF8FE39CE90197F1F700C000000F5FA0
S11303F094E0C90ED11C0830E9F641E0612F83E096
S11304000E94C6001F5FEFEFEE1AFE0A143059F681
S11304108B2D0F90DF91CF911F910F91FF90EF9053
S1130420DF90CF90BF900895CF93C82F40E061E054
S113043081E00E94C60040E062E081E00E94C600C4
S113044040E063E081E00E94C6008BB39C2F907F64
S11304508F70892B8BBB41E063E081E00E94C60072
S11304608FE99FE00197F1F700C0000040E063E0EE
S113047081E00E94C6002BB330E1C39FC001112468
S1130480922F9F70892B8BBB41E063E081E00E9437
S1130490C6008FE99FE00197F1F700C0000040E03B
S11304A063E081E00E94C6008FE19EE40197F1F7CA
S11304B000C00000CF91089541E061E081E00E9416
S11304C0610041E062E081E00E94610041E063E09C
S11304D081E00E94610041E064E080E00E946100EC
S11304E041E065E080E00E94610041E066E080E078
S11304F00E94610041E067E080E00E9461002FEF0C
S113050081EE94E0215080409040E1F700C000006B
S113051083E30E94140282E30E94140288E20E9490
S113052014028CE00E94140281E00E94140286E00E
S11305300E94140282E00C941402CF93C82F41E06D
S113054061E081E00E94C60040E062E081E00E9438
S1130550C60040E063E081E00E94C6008C2F807FEB
S11305608BBB41E063E081E00E94C6008FE99FE01D
S11305700197F1F700C0000040E063E081E00E94D1
S1130580C600C295C07FCBBB41E063E081E00E941E
S1130590C6008FE99FE00197F1F700C0000040E03A
S11305A063E081E00E94C6008FE19EE40197F1F7C9
S11305B000C00000CF9108950F931F93CF938C0137
S11305C0C0E0F801EC0FF11D8081882321F00E9426
S11305D09D02CF5FF6CFCF911F910F91089581E0D7
S11305E00C941402EF92FF920F931F93CF93DF9317
S11305F0EC0197FF06C08DE20E949D02D195C19542
S1130600D10901E010E02AE0EAE0F0E0209771F07F
S1130610209F7001219FF00C1124CE01BF010E9484
S113062092038C010E0D1F1DEB01F0CFC8016AE08F
S113063070E00E949203C0E3C80F0130110521F05D
S11306408C2F0E949D02F9CFDF91CF911F910F91C2
S1130650FF90EF900895CF93DF93CDB7DEB72B973C
S11306600FB6F894DEBF0FBECDBF85E0E6E8F0E03C
S1130670DE01169601900D928A95E1F71B860E9481
S11306805C020E9474010E948E037E0125E0E20E4A
S1130690F11C8E010F5F1F4F0E94C001805DF801A5
S11306A081938F01FFEF29E688E1F15020408040DB
S11306B0E1F700C000000E151F0571F79FEFE5EA92
S11306C0FEE09150E040F040E1F700C000001D82E0
S11306D0BE016F5F7F4FCE0106960E94BA03892B3D
S11306E0C1F4CE010B960E94900380E790E00E9433
S11306F0DC022FEF89E698E1215080409040E1F739
S113070000C000000E94EF028B8590E00E94F2027C
S1130710C0CF87E790E00E94DC02BBCF0C9441007D
S11307200C944C0097FB072E16F4009407D077FD29
S113073009D00E94A60307FC05D03EF4909581954C
S11307409F4F0895709561957F4F0895AA1BBB1B19
S113075051E107C0AA1FBB1FA617B70710F0A61BBD
S1130760B70B881F991F5A95A9F780959095BC01DE
S1130770CD010895FB01DC018D91019080190110D8
S10D0780D9F3990B0895F894FFCF04
S113078A3738392F3435362A3132332D63303D2BFD
S113079A5041535345440057524F4E472042415308
S10F07AA53574F524400313233340000E6
S9030000FC
